{
    "_format": "hh-sol-artifact-1",
    "contractName": "Transactions",
    "sourceName": "contracts/Transactions.sol",
    "abi": [
        {
            "inputs": [],
            "stateMutability": "nonpayable",
            "type": "constructor"
        },
        {
            "anonymous": false,
            "inputs": [
                {
                    "indexed": false,
                    "internalType": "address",
                    "name": "from",
                    "type": "address"
                },
                {
                    "indexed": false,
                    "internalType": "address",
                    "name": "receiver",
                    "type": "address"
                },
                {
                    "indexed": false,
                    "internalType": "uint256",
                    "name": "amount",
                    "type": "uint256"
                },
                {
                    "indexed": false,
                    "internalType": "string",
                    "name": "message",
                    "type": "string"
                },
                {
                    "indexed": false,
                    "internalType": "uint256",
                    "name": "timestamp",
                    "type": "uint256"
                },
                {
                    "indexed": false,
                    "internalType": "string",
                    "name": "keyword",
                    "type": "string"
                }
            ],
            "name": "Transfer",
            "type": "event"
        },
        {
            "inputs": [
                {
                    "internalType": "address payable",
                    "name": "receiver",
                    "type": "address"
                },
                {
                    "internalType": "uint256",
                    "name": "amount",
                    "type": "uint256"
                },
                {
                    "internalType": "string",
                    "name": "message",
                    "type": "string"
                },
                {
                    "internalType": "string",
                    "name": "keyword",
                    "type": "string"
                }
            ],
            "name": "addToBlockChain",
            "outputs": [],
            "stateMutability": "nonpayable",
            "type": "function"
        },
        {
            "inputs": [],
            "name": "getAllTransactions",
            "outputs": [
                {
                    "components": [
                        {
                            "internalType": "address",
                            "name": "from",
                            "type": "address"
                        },
                        {
                            "internalType": "address",
                            "name": "receiver",
                            "type": "address"
                        },
                        {
                            "internalType": "uint256",
                            "name": "amount",
                            "type": "uint256"
                        },
                        {
                            "internalType": "string",
                            "name": "message",
                            "type": "string"
                        },
                        {
                            "internalType": "uint256",
                            "name": "timestamp",
                            "type": "uint256"
                        },
                        {
                            "internalType": "string",
                            "name": "keyword",
                            "type": "string"
                        }
                    ],
                    "internalType": "struct Transactions.TransferStruct[]",
                    "name": "",
                    "type": "tuple[]"
                }
            ],
            "stateMutability": "view",
            "type": "function"
        },
        {
            "inputs": [],
            "name": "getTrasactionCount",
            "outputs": [
                {
                    "internalType": "uint256",
                    "name": "",
                    "type": "uint256"
                }
            ],
            "stateMutability": "view",
            "type": "function"
        }
    ],
    "bytecode": "0x608060405234801561001057600080fd5b50610e0c806100206000396000f3fe608060405234801561001057600080fd5b50600436106100415760003560e01c806320190a591461004657806327506f5314610064578063b2da096014610082575b600080fd5b61004e61009e565b60405161005b91906104b7565b60405180910390f35b61006c6100a7565b6040516100799190610704565b60405180910390f35b61009c600480360381019061009791906108d9565b6102ea565b005b60008054905090565b60606001805480602002602001604051908101604052809291908181526020016000905b828210156102e157838290600052602060002090600602016040518060c00160405290816000820160009054906101000a900473ffffffffffffffffffffffffffffffffffffffff1673ffffffffffffffffffffffffffffffffffffffff1673ffffffffffffffffffffffffffffffffffffffff1681526020016001820160009054906101000a900473ffffffffffffffffffffffffffffffffffffffff1673ffffffffffffffffffffffffffffffffffffffff1673ffffffffffffffffffffffffffffffffffffffff168152602001600282015481526020016003820180546101b4906109a7565b80601f01602080910402602001604051908101604052809291908181526020018280546101e0906109a7565b801561022d5780601f106102025761010080835404028352916020019161022d565b820191906000526020600020905b81548152906001019060200180831161021057829003601f168201915b5050505050815260200160048201548152602001600582018054610250906109a7565b80601f016020809104026020016040519081016040528092919081815260200182805461027c906109a7565b80156102c95780601f1061029e576101008083540402835291602001916102c9565b820191906000526020600020905b8154815290600101906020018083116102ac57829003601f168201915b505050505081525050815260200190600101906100cb565b50505050905090565b60016000808282546102fc9190610a07565b9250508190555060016040518060c001604052803373ffffffffffffffffffffffffffffffffffffffff1681526020018673ffffffffffffffffffffffffffffffffffffffff16815260200185815260200184815260200142815260200183815250908060018154018082558091505060019003906000526020600020906006020160009091909190915060008201518160000160006101000a81548173ffffffffffffffffffffffffffffffffffffffff021916908373ffffffffffffffffffffffffffffffffffffffff16021790555060208201518160010160006101000a81548173ffffffffffffffffffffffffffffffffffffffff021916908373ffffffffffffffffffffffffffffffffffffffff1602179055506040820151816002015560608201518160030190816104349190610be7565b506080820151816004015560a08201518160050190816104549190610be7565b5050507f416cfa4330a4565f45c2fd2dd4826a83a37443aba2ce6f79477c7355afac35fa33858585428660405161049096959493929190610d67565b60405180910390a150505050565b6000819050919050565b6104b18161049e565b82525050565b60006020820190506104cc60008301846104a8565b92915050565b600081519050919050565b600082825260208201905092915050565b6000819050602082019050919050565b600073ffffffffffffffffffffffffffffffffffffffff82169050919050565b6000610529826104fe565b9050919050565b6105398161051e565b82525050565b6105488161049e565b82525050565b600081519050919050565b600082825260208201905092915050565b60005b8381101561058857808201518184015260208101905061056d565b60008484015250505050565b6000601f19601f8301169050919050565b60006105b08261054e565b6105ba8185610559565b93506105ca81856020860161056a565b6105d381610594565b840191505092915050565b600060c0830160008301516105f66000860182610530565b5060208301516106096020860182610530565b50604083015161061c604086018261053f565b506060830151848203606086015261063482826105a5565b9150506080830151610649608086018261053f565b5060a083015184820360a086015261066182826105a5565b9150508091505092915050565b600061067a83836105de565b905092915050565b6000602082019050919050565b600061069a826104d2565b6106a481856104dd565b9350836020820285016106b6856104ee565b8060005b858110156106f257848403895281516106d3858261066e565b94506106de83610682565b925060208a019950506001810190506106ba565b50829750879550505050505092915050565b6000602082019050818103600083015261071e818461068f565b905092915050565b6000604051905090565b600080fd5b600080fd5b6000610745826104fe565b9050919050565b6107558161073a565b811461076057600080fd5b50565b6000813590506107728161074c565b92915050565b6107818161049e565b811461078c57600080fd5b50565b60008135905061079e81610778565b92915050565b600080fd5b600080fd5b7f4e487b7100000000000000000000000000000000000000000000000000000000600052604160045260246000fd5b6107e682610594565b810181811067ffffffffffffffff82111715610805576108046107ae565b5b80604052505050565b6000610818610726565b905061082482826107dd565b919050565b600067ffffffffffffffff821115610844576108436107ae565b5b61084d82610594565b9050602081019050919050565b82818337600083830152505050565b600061087c61087784610829565b61080e565b905082815260208101848484011115610898576108976107a9565b5b6108a384828561085a565b509392505050565b600082601f8301126108c0576108bf6107a4565b5b81356108d0848260208601610869565b91505092915050565b600080600080608085870312156108f3576108f2610730565b5b600061090187828801610763565b94505060206109128782880161078f565b935050604085013567ffffffffffffffff81111561093357610932610735565b5b61093f878288016108ab565b925050606085013567ffffffffffffffff8111156109605761095f610735565b5b61096c878288016108ab565b91505092959194509250565b7f4e487b7100000000000000000000000000000000000000000000000000000000600052602260045260246000fd5b600060028204905060018216806109bf57607f821691505b6020821081036109d2576109d1610978565b5b50919050565b7f4e487b7100000000000000000000000000000000000000000000000000000000600052601160045260246000fd5b6000610a128261049e565b9150610a1d8361049e565b9250828201905080821115610a3557610a346109d8565b5b92915050565b60008190508160005260206000209050919050565b60006020601f8301049050919050565b600082821b905092915050565b600060088302610a9d7fffffffffffffffffffffffffffffffffffffffffffffffffffffffffffffffff82610a60565b610aa78683610a60565b95508019841693508086168417925050509392505050565b6000819050919050565b6000610ae4610adf610ada8461049e565b610abf565b61049e565b9050919050565b6000819050919050565b610afe83610ac9565b610b12610b0a82610aeb565b848454610a6d565b825550505050565b600090565b610b27610b1a565b610b32818484610af5565b505050565b5b81811015610b5657610b4b600082610b1f565b600181019050610b38565b5050565b601f821115610b9b57610b6c81610a3b565b610b7584610a50565b81016020851015610b84578190505b610b98610b9085610a50565b830182610b37565b50505b505050565b600082821c905092915050565b6000610bbe60001984600802610ba0565b1980831691505092915050565b6000610bd78383610bad565b9150826002028217905092915050565b610bf08261054e565b67ffffffffffffffff811115610c0957610c086107ae565b5b610c1382546109a7565b610c1e828285610b5a565b600060209050601f831160018114610c515760008415610c3f578287015190505b610c498582610bcb565b865550610cb1565b601f198416610c5f86610a3b565b60005b82811015610c8757848901518255600182019150602085019450602081019050610c62565b86831015610ca45784890151610ca0601f891682610bad565b8355505b6001600288020188555050505b505050505050565b610cc28161051e565b82525050565b6000610ce3610cde610cd9846104fe565b610abf565b6104fe565b9050919050565b6000610cf582610cc8565b9050919050565b6000610d0782610cea565b9050919050565b610d1781610cfc565b82525050565b600082825260208201905092915050565b6000610d398261054e565b610d438185610d1d565b9350610d5381856020860161056a565b610d5c81610594565b840191505092915050565b600060c082019050610d7c6000830189610cb9565b610d896020830188610d0e565b610d9660408301876104a8565b8181036060830152610da88186610d2e565b9050610db760808301856104a8565b81810360a0830152610dc98184610d2e565b905097965050505050505056fea2646970667358221220fcc1a869643a4bb5c2c3cad1b5a6c04eff03a31068063425d3643cd735d4a5c564736f6c63430008110033",
    "linkReferences": {},
    "deployedLinkReferences": {}
}